{
  "contractName": "Shop",
  "abi": [
    {
      "constant": false,
      "inputs": [],
      "name": "buyApple",
      "outputs": [],
      "payable": true,
      "stateMutability": "payable",
      "type": "function"
    },
    {
      "constant": true,
      "inputs": [],
      "name": "getMyApples",
      "outputs": [
        {
          "name": "",
          "type": "uint16"
        }
      ],
      "payable": false,
      "stateMutability": "view",
      "type": "function"
    },
    {
      "constant": false,
      "inputs": [
        {
          "name": "_applePrice",
          "type": "uint256"
        }
      ],
      "name": "sellMyApple",
      "outputs": [],
      "payable": true,
      "stateMutability": "payable",
      "type": "function"
    }
  ],
  "bytecode": "0x608060405234801561001057600080fd5b506102a8806100206000396000f300608060405260043610610057576000357c0100000000000000000000000000000000000000000000000000000000900463ffffffff1680630bd584931461005c578063284131c71461007c57806395ff3cc114610086575b600080fd5b61007a600480360381019080803590602001909291905050506100b9565b005b6100846101b5565b005b34801561009257600080fd5b5061009b610228565b604051808261ffff1661ffff16815260200191505060405180910390f35b6000816000803373ffffffffffffffffffffffffffffffffffffffff1673ffffffffffffffffffffffffffffffffffffffff16815260200190815260200160002060009054906101000a900461ffff1661ffff1602905060008060003373ffffffffffffffffffffffffffffffffffffffff1673ffffffffffffffffffffffffffffffffffffffff16815260200190815260200160002060006101000a81548161ffff021916908361ffff1602179055503373ffffffffffffffffffffffffffffffffffffffff166108fc829081150290604051600060405180830381858888f193505050501580156101b0573d6000803e3d6000fd5b505050565b6000803373ffffffffffffffffffffffffffffffffffffffff1673ffffffffffffffffffffffffffffffffffffffff168152602001908152602001600020600081819054906101000a900461ffff168092919060010191906101000a81548161ffff021916908361ffff16021790555050565b60008060003373ffffffffffffffffffffffffffffffffffffffff1673ffffffffffffffffffffffffffffffffffffffff16815260200190815260200160002060009054906101000a900461ffff169050905600a165627a7a723058203a440901d19d65c5a05c437c6aee240c5bcd20e7e1a2ddcf78e7121d5ac985b50029",
  "source": "pragma solidity ^0.4.18;\n\ncontract Shop {\n\n  mapping (address=>uint16) myApple;\n\n  function buyApple() payable  external {\n          myApple[msg.sender]++;\n  }\n\n  function getMyApples() view external returns(uint16)  {\n          return myApple[msg.sender];\n  }\n\n  function sellMyApple(uint _applePrice) payable external {\n        uint refund = (myApple[msg.sender] * _applePrice);\n        myApple[msg.sender] = 0;\n        msg.sender.transfer(refund);\n  }\n  \n}",
  "sourcePath": "/Users/dangen/Documents/GitHub/fruitshop/contracts/Shop.sol",
  "compiler": {
    "name": "solc",
    "version": "0.4.23+commit.124ca40d.Emscripten.clang"
  },
  "schemaVersion": "2.0.0",
  "updatedAt": "2018-05-17T06:14:39.780Z"
}